:020000040800F2
:10000000B8070020710200084D19000849180008BF
:100010004B180008F5080008831E000800000000C7
:10002000000000000000000000000000C101000806
:10003000F708000800000000050200086F1900081A
:100040008B0200088B0200088B0200088B0200085C
:100050008B0200088B0200088B0200088B0200084C
:100060008B02000801090008070900088B0200083C
:100070008B0200088B0200088B0200088B0200082C
:100080008B0200088B0200088B0200088B0200081C
:100090008B0200088B0200088B0200080D09000883
:1000A0008B0200088B0200088B0200088B020008FC
:1000B0008B020008311A00088B0200088B0200082E
:1000C0008B0200088B0200088B0200088B020008DC
:1000D0008B0200088B0200088B0200088B020008CC
:1000E000F90800088B0200088B0200088B02000848
:1000F0008B0200088B0200088B0200088B020008AC
:100100008B0200088B0200088B0200088B0200089B
:100110008B0200088B0200088B0200088B0200088B
:100120008B0200088B0200088B0200088B0200087B
:100130008B0200088B0200088B0200088B0200086B
:100140008B0200088B0200088B0200088B0200085B
:100150008B0200088B0200088B0200088B0200084B
:100160008B0200088B0200088B0200088B0200083B
:100170008B0200088B0200088B02000800000000C0
:100180008B0200088B0200088B0200088B0200081B
:100190008B0200088B0200088B0200088B0200080B
:1001A0008B0200088B0200088B020008DFF80CD0DD
:1001B00000F070FA0048004771270008B8070020D7
:1001C000234B19680868B0E8F04F80F309884FF0B6
:1001D000000080F3118870470000000003480068A9
:1001E000006880F3088862B600DF00BF08ED00E019
:1001F000DFF80C00016841F470010160704700BF36
:1002000088ED00E0EFF30980114B1A681EF0100F23
:1002100008BF20ED108A20E9F04F106008B44FF0BD
:10022000500080F3118802F0A7FB4FF0000080F32C
:10023000118808BC19680868B0E8F04F1EF0100F6C
:1002400008BFB0EC108A80F30988704700BF00BF78
:1002500050000020EFF311804FF0500181F311881E
:10026000704780F311887047EFF3058070470000F6
:100270000648804706480047FEE7FEE7FEE7FEE740
:10028000FEE7FEE7FEE7FEE7FEE7FEE7DD19000812
:10029000AD01000830B50B460146002020220124A4
:1002A00009E021FA02F59D4205D303FA02F5491B44
:1002B00004FA02F52844151EA2F10102F1DC30BD5A
:1002C0002DE9F05F0546002092469B46884606468B
:1002D000814640241BE0284641464746224600F01E
:1002E000FAF953465A46C01A914110D3114618469E
:1002F000224600F0E1F92D1A67EB01084F4622462D
:100300000120002100F0D8F917EB00094E41201E12
:10031000A4F10104DFDC484631462A464346BDE8E5
:10032000F09F2DE9FE4F804681EA0300C00F0C4686
:10033000009021F0004123F00045B8EB0200A941F4
:1003400005D24046214690461C460B46024623F005
:100350000040104347D0270DC7F30A00C3F30A51EA
:100360000290401A019040286BDAC3F3130040F466
:10037000801B0098924620B10023D2EB030A63EB66
:100380000B0B01985946C0F14002504600F094F919
:1003900006460D4650465946019A00F0ACF910EB5E
:1003A00008006141002487EA115284EAE7731A4386
:1003B00040D0009A62B3019A012A4FEA075215DC35
:1003C000001B61EB02014FF0004202EA0752CDE947
:1003D0000042001C41F5801132462B4600F0ACF97A
:1003E00003B0BDE8F08F40462146F9E7001B61EB02
:1003F0000201001C41F5801300185B412018A2F592
:10040000001747EB030140EAD570B6196D4111E0C2
:100410006D084FEA360645EAC0754FEA0752001BE1
:1004200061EB0201001C41F5801149084FEA3000E0
:100430000019514132462B4603B0BDE8F04F00F0A1
:100440006CB90098012240000023D0EB020263EB5C
:10045000E073009821464FEAE074B8EB000061EBCE
:100460000401E9E783F000435BE781F0004158E7CE
:100470002DE9FE4F81EA030404F0004421F000411D
:1004800000944FF0000B23F0004350EA01045ED0CB
:1004900052EA03045BD0C3F30A54C1F30A552C4457
:1004A000A4F2F3340194A0FB0254C1F3130141F40C
:1004B0008011C3F3130343F4801301FB024400FBD8
:1004C000034E840A970A44EA815447EA8357A4FBFF
:1004D000076802958D0A05FB07854FEA932C04FBFC
:1004E0000C542705029D4FEA065847EA1637B5EB2C
:1004F00008056EEB070C870E920E47EA811742EA59
:100500008312A7FB0201B6EB0B0164EB00042B0D79
:1005100043EA0C335E1844EB1C50DA465146E7FBC5
:100520000201C5F313044FEA0B3343EA14534FEAB5
:100530000432019C43EA0603A4F10C040294009CDB
:10054000CDE900B400F0F8F803B0BDE8F08F00206A
:100550000146F9E72DE9F04D81EA030404F0004B70
:1005600021F0004514464FF0000A23F0004150EA04
:10057000050220D054EA01021DD0C5F30A570246F5
:10058000C5F31303C1F31300C1F30A5640F48015F9
:1005900043F48013A7EB0608101BD64608F2FD387B
:1005A00073EB050002D308F1010801E092185B41EA
:1005B000B8F1000F03DA00200146BDE8F08D0020FD
:1005C0004FF48011064684460EE0171B73EB0507B7
:1005D00005D3121B63EB050306434CEA010C4908E3
:1005E0004FEA300092185B4150EA0107EDD152EA20
:1005F000030012D082EA040083EA0501084305D013
:10060000101BAB4106D20122002306E000224FF06E
:10061000004302E06FF0010253101AEB06004CEBAE
:10062000085110EB0A0041EB0B01BDE8F04D00F062
:1006300074B8C1F30A52C1F3130140F2FF3341F41D
:1006400080119A4202DA00200146704740F233439B
:100650009A42A2F2334202DC524200F03CB800F06F
:100660002BB8000030B5041E71F1000404DB4FF01C
:100670000044404264EB0101141E73F1000405DBE9
:100680001C464FF00043524263EB0403994208BFFB
:10069000904230BD064C074D06E0E06840F0010393
:1006A00094E8070098471034AC42F6D3FFF782FD78
:1006B000882A0008A82A0008202A04DB203A00FA29
:1006C00002F1002070479140C2F1200320FA03F3A9
:1006D000194390407047202A04DB203A21FA02F0A7
:1006E0000021704721FA02F3D040C2F1200291406C
:1006F000084319467047202A06DBCB17203A41FAF7
:1007000002F043EAE07306E041FA02F3D040C2F19E
:100710002002914008431946704710B5141E73F12A
:10072000000408DA401C41F1000192185B411A43B1
:1007300001D120F0010010BD2DE9F04D92469B46FD
:1007400011B1B1FA81F202E0B0FA80F220329046A3
:10075000FFF7B2FF04460F4640EA0A0041EA0B01E8
:1007600053465A46084313D0114653EA010019D0A4
:10077000C8F140025046FFF7AEFF05460E46504610
:1007800059464246FFF798FF084305D0012004E090
:1007900020463946BDE8F08D0020054346EAE07664
:1007A0002C4337430A986305E40AA0EB08000022B3
:1007B000FD0A44EA47540A3002D500200146E9E721
:1007C000010510196941DDE9084500196941BDE8D5
:1007D000F04DA2E70948084901604FF4E13141605A
:1007E00000218160C160016181610C21416101468C
:1007F000002000F005B80000004800408C000020F8
:1008000070B504002E480D4686B0016846D041F010
:1008100040010160016841F0400101602848143046
:10082000016841F02001016026480226694630F83F
:100830001400CDE900060120CDE902062148083068
:1008400030F814000490204850F8240000F0DEF83E
:100850001C486946001D30F81400CDE9000619480F
:100860000C3030F8140004901748083050F8240079
:1008700000F0CCF8FCB147200022052100F018FA66
:10088000DCB1472000F009FA0F48083850F824007E
:100890002860284600F042FF06B070BD41F002011A
:1008A0000160016841F002010160054810300168F3
:1008B00041F48021B7E72720DEE72720E2E70000A8
:1008C00030380240D42900080C00002001004FF00D
:1008D000000009D0012906D1054909680A68920675
:1008E00001D54868C0B2704701493C39F5E70000BE
:1008F000C8000020FEE770474FF4004000F07AB8CF
:10090000082000F077B8102000F074B8202000F024
:1009100071B8000070B5164C86B0206840F0010038
:100920002060144D00264FF400408DE861006946B8
:10093000114800F06BF800220221282000F0B8F9DD
:10094000282000F0AAF9206840F00200206038203A
:100950008DE861006946094800F058F8002202213C
:100960000A2000F0A5F90A2000F097F906B070BD42
:100970003038024000001110000002400004024024
:10098000044901B50868009A10440A688242FCD301
:1009900008BD00004000002070B5144A0325144C27
:1009A000102812D0B0F5004F0BD10821104600F0EE
:1009B0003FF9207030B1012803D16088401E60806B
:1009C000257070BD6088401CF9E72021104600F0BA
:1009D0002FF9607038B120780128F2D1A088401E2C
:1009E000A080657070BDA088401CF9E7000402403B
:1009F00044000020044910B50A68024202D0086091
:100A0000FFF7CAFF10BD0000143C01402DE9F04F74
:100A10000022DFF8E8E101254FF0030B4FF00F0A49
:100A20000B6805FA02F42340A3427DD14E68022EE2
:100A300001D0122E14D156070F694FEAD66C07FA6F
:100A40000CF9D60800EB8606376A0AFA0CF827EA92
:100A500008073762D6F820C04CEA090CC6F820C057
:100A6000D0F800C056000BFA06F72CEA070CC0F8C5
:100A700000C091F804C0D0F800800CF0030C0CFA10
:100A800006FC4CEA080CC0F800C0D1F804C0BCF168
:100A9000010F08D0BCF1020F05D0BCF1110F02D03C
:100AA000BCF1120F1FD1D0F808C02CEA070CC0F817
:100AB00008C0D1F80CC0D0F808800CFA06FC4CEA4B
:100AC000080CC0F808C0D0F804C02CEA040CC0F828
:100AD00004C0D0F804C00C79C4F3001494404CEA6C
:100AE000040CC0F804C0C468BC43C4608C68B44043
:100AF000C6683443C4604C68E40079D5404C26682D
:100B000046F4804626609407270F3E4C22F0030CE3
:100B100064440AFA07F6D4F808C82CEA060CC4F8AC
:100B200008C8394EB04200E062E001D100262DE055
:100B3000364EB04201D1012628E0354EB04201D1F7
:100B4000022623E0334EB04201D103261EE0324E8E
:100B5000B04201D1042619E0304EB04201D1052641
:100B600014E02F4EB04201D106260FE02D4EB042C8
:100B700001D107260AE02C4EB04201D1082605E03B
:100B80002A4EB04201D1092600E00A26BE40D4F820
:100B900008783E43C4F80868DEF8006074469E4357
:100BA000CEF80060154E361D37689F4337604F689A
:100BB000FF0302D527681F4327604C68A40302D5B2
:100BC00034681C4334600D4C083426689E4326600C
:100BD000261D37689F4337604F68FF0202D527689C
:100BE0001F4327604C68A40202D534681C4334605C
:100BF000521C102AFFF414AFBDE8F08F003C0140F6
:100C0000443802400030014000000240000402402D
:100C100000080240000C0240001002400014024094
:100C200000180240001C0240002002400024024044
:100C30000069084000D0012070470AB10183704765
:100C40004183704701480068704700004000002061
:100C500002480168491C0160704700004000002004
:100C60000C4810B5016841F400710160016841F45D
:100C700080610160016841F4807101604FF47A5035
:100C800000F068FB032000F033F800F005F80020C6
:100C900010BD0000003C0240704700F01F0201211F
:100CA00091404009800000F1E020C0F80011704739
:100CB000F0B40E4B1B680C46C3F30223C3F10705C7
:100CC000042D00D90425191D072901D2002300E0B5
:100CD000DB1E012606FA05F1491E214099409E407F
:100CE000761E16403143F0BC00F031BE0CED00E042
:100CF000064900F0070208684FF6FF03184040EA73
:100D00000220034A10430860704700000CED00E029
:100D10000000FA052DE9F0411348016841F08051C7
:100D20000160124F01263E64FFF78CFF00F57A75D3
:100D30000F4C03E0FFF786FFA8420DD26068C003A6
:100D4000F8D57E64FFF77EFF00F57A7507E000BFF7
:100D5000FFF778FFA84202D30320BDE8F081606866
:100D60008003F5D50020F8E74038024000000E422D
:100D7000007000402DE9F047DFF8A09105460E46CF
:100D8000D9F80000664C00F00F016548083406F001
:100D9000FF0841F28837B14243D289F80080D9F880
:100DA000001001F00F01B14275D12978C90724D094
:100DB0006968012913D00068022913D08007002830
:100DC00076DA206820F0030008432060FFF73AFF3E
:100DD000C619686801280BD0022813D01CE00068EF
:100DE0008003ECE78001EAE7FFF72CFFB0424FD227
:100DF0002068C0F381000128F6D15BE0FFF722FFF5
:100E0000B04245D22068C0F381000228F6D151E0FB
:100E1000FFF718FFB0423BD2206810F00C0FF7D15B
:100E200048E02978C9073BD06968012913D00068D8
:100E3000022913D0800700283ADA206820F0030046
:100E400008432060FFF7FEFE0744686801280BD0C6
:100E5000022813D020E000688003ECE78001EAE775
:100E6000FFF7F0FEB84213D22068C0F381000128DA
:100E7000F6D115E0FFF7E6FEB84209D22068C0F3CC
:100E800081000228F6D10BE0FFF7DCFEB84203D365
:100E90000320BDE8F0870BE0206810F00C0FF3D1C1
:100EA00089F80080D9F8000000F00F00B04201D0AE
:100EB0000120EEE72878800705D52068A96820F092
:100EC000F000084320602878400705D52068E968CD
:100ED00020F4E050084320602878000706D52068F9
:100EE000296920F4604040EAC100206000F01CF84D
:100EF0004FF47A71B0FBF1F0401EB0F1807F0AD25E
:100F00004FF0E0214861074AF02082F8140D0020DC
:100F10008861072008610020BBE70000003C024018
:100F2000003802400FE000E000B500F043F8084947
:100F30000968F02292FAA2F201F0F001B2FA82F20C
:100F4000D140044A515CC8400349086000BD00001C
:100F500008380240EC2900082C00002000B5FFF7FB
:100F6000E3FF074909684FF4E05292FAA2F201F454
:100F7000E051B2FA82F2D140024A515CC84000BD51
:100F800008380240EC29000800B5FFF7CDFF0749FB
:100F900009684FF4604292FAA2F201F46041B2FA99
:100FA00082F2D140024A515CC84000BD083802407C
:100FB000EC29000830B51D48006810F00C011C48F1
:100FC0001AD01C4C042916D0082915D11749091F1D
:100FD0000A6802F03F030A6802F480054FF48002B9
:100FE00092FAA2F2B2FA82F2D54047F6C07204D069
:100FF000B4FBF3F003E0204630BDB0FBF3F00B6828
:101000000968134092FAA2F2B2FA82F2D34058432E
:101010004FF4403292FAA2F201F44031B2FA82F275
:10102000D140491C4900B0FBF1F030BD0838024006
:101030000024F40040787D012DE9F84F0446007843
:10104000DFF8FC92BF4DC0074FF0000649D0D9F839
:1010500000104846C1F38101012908D00068C0F39F
:10106000810002280AD1281D0068400206D52868A0
:10107000800336D56068012874D132E0DFF8C4A25D
:101080000AF1020A8AF80060FFF7DCFD41F28837B6
:1010900000EB070804E000BFFFF7D4FD40457BD21A
:1010A00028688003F8D420798AF800006068012855
:1010B00003D0FFF7C7FD074410E0FFF7C3FD074467
:1010C00004E000BFFFF7BEFDB842E8D22868800305
:1010D000F8D506E0FFF7B6FDB842E0D228688003F5
:1010E000F8D42078984F80074FF0010B43D5D9F8FA
:1010F0000010484611F00C0F09D00068C0F38100C1
:1011000002280BD18E48001F0068400206D42868D0
:10111000800730D5E0680128AED12CE0E068D8B176
:10112000C7F800B0FFF78EFD00F1640804E000BFCF
:10113000FFF788FD4045B2D228688007F8D52868B7
:10114000F82292FAA2F22169B2FA82F220F0F800B3
:101150009140084328600EE03E60FFF773FD00F108
:10116000640805E0EAE000BFFFF76CFD404513D2DC
:1011700028688007F8D42078000727D5DFF8C0A1B9
:10118000724861690AF16C0A89B1C0F800B0FFF7D2
:1011900059FD00F1640805E07EE000BFFFF752FD55
:1011A000404579D2DAF800008007F7D50EE00660F6
:1011B000FFF748FD00F1640804E000BFFFF742FDBF
:1011C000404569D2DAF800008007F7D4207840075C
:1011D00052D55B483830016841F080510160DFF83A
:1011E00070A1DAF8001041F48071CAF80010FFF71E
:1011F00029FD00F1640803E0FFF724FD40454BD2D0
:10120000DAF80000C005F7D5DFF8348108F1680886
:1012100088F80060FFF716FD41F2883A50440090CC
:1012200005E000BFFFF70EFD009988427ED2D8F896
:1012300000008007F6D4207A88F80000A068012812
:1012400003D0FFF7FFFC824412E0FFF7FBFC82446F
:1012500004E000BFFFF7F6FC504567D2D8F8000065
:101260008007F7D508E000BFFFF7ECFC50455DD2E2
:10127000D8F800008007F7D4A069E8B3D9F80010C7
:10128000C1F38101022959D002283E6605D0FFF73B
:10129000D9FC00F164044CE048E0FFF7D3FC00F116
:1012A000640603E0FFF7CEFCB0423FD2286880011D
:1012B000F8D4D4E90710084347F6C07292FAA2F2B4
:1012C000616AB2FA82F29140A26A4FF0FF3303EBF7
:1012D00052024FF4403393FAA3F3B3FA83F39A40E4
:1012E000114308434FF0706292FAA2F2E16AB2FA37
:1012F00082F29140084300E01EE040F000511048A7
:10130000001F0160C7F860B0FFF79CFC00F16404A7
:1013100004E000BFFFF796FCA04207D228688001D6
:10132000F8D509E0FFF78EFCA04202D30320BDE808
:10133000F88F28688001F5D40020F8E70120F6E74F
:10134000083802400038024000004742800E474201
:101350000070004010B5401EB0F1807F01D3012025
:1013600010BD4FF0E02460610F21601700F0EFFA2C
:101370000020A06107202061002010BD7047704749
:10138000704770B50446006801694FF00005C94315
:10139000890717D4C168C943890713D4016921F0AB
:1013A00002010161012020762068806980072046C3
:1013B00002D0FFF7E5FF04E000F0A0F8204600F0BF
:1013C0005FF9257620680169C943490718D4C168C7
:1013D000C943490714D4016921F0040101610220C5
:1013E00020762068806910F4407F204602D0FFF705
:1013F000C7FF04E000F082F8204600F041F92576AE
:1014000020680169C943090717D4C168C94309079E
:1014100013D4016921F008010161042020762068BD
:1014200080698007204602D0FFF7AAFF04E000F0A1
:1014300065F8204600F024F9257620680169C94343
:10144000C90618D4C168C943C90614D4016921F07A
:1014500010010161082020762068806910F4407F27
:10146000204602D0FFF78CFF04E000F047F820464A
:1014700000F006F9257620680169C943C9070AD139
:10148000C168C943C90706D1016921F001010161A1
:10149000204600F041F920680169C94309060AD4D1
:1014A000C168C943090606D4016921F080010161C0
:1014B0002046FFF763FF20680169C94349060AD443
:1014C000C168C943490606D4016921F040010161A0
:1014D000204600F022F920680169C94389060CD42E
:1014E000C168C943890608D4016921F0200101615E
:1014F0002046BDE87040FFF742BF70BD704770B531
:10150000044690F838000D4601280DD0012684F8D5
:101510003860022084F8390042B1042A18D0082A21
:101520002AD00C2A4DD139E0022070BD206800F08D
:10153000F1FA2068816941F00801816120688169C0
:1015400021F004018161206881692A69114311E059
:10155000206800F00BFB2068816941F40061816123
:101560002068816921F480618161206881692A692C
:1015700041EA0221816124E0206800F029FB206813
:10158000C16941F00801C1612068C16921F004010D
:10159000C1612068C1692A69114311E0206800F027
:1015A00047FB2068C16941F40061C1612068C169DD
:1015B00021F48061C1612068C1692A6941EA022180
:1015C000C16184F83960002084F8380070BD10B51E
:1015D000040003D094F8390010B104E0012010BDDC
:1015E000204600F00DF8022084F83900211D206803
:1015F00000F024FA012084F83900002010BD00001A
:1016000010B51A4C03681A480221032286B0A3427F
:1016100012D1174B14331C6844F002041C60036899
:1016200043F004030360CDE90212C0200191009051
:10163000694604920F4815E00F4CA34214D10C4B9D
:1016400010331C6844F004041C60036843F0080372
:101650000360CDE902124FF44050019104910090D3
:1016600069460648FFF7D2F906B010BD00040140F4
:10167000303802400008024000080040000C0240E0
:101680007047000010B504460068012200F036FAE9
:1016900008492068884202D00749884203D1416C3A
:1016A00041F4004141642068016841F0010101609A
:1016B000002010BD000001400004014010B50446A8
:1016C0000068002200F01AFA114841F21112216854
:1016D0009310814202D00F48814209D1086A10421A
:1016E00006D1086A184203D1486C20F400404864CF
:1016F0002068016A114206D1016A194203D10168CA
:1017000021F001010160012084F83900002010BDA2
:1017100000000140000401407047704710B504000C
:1017200003D094F8390010B104E0012010BD204628
:1017300000F022F8022084F839002068C16821F402
:101740000051C160204600F09BFA2068016921F435
:10175000904101612068416921F02A0141612068BE
:10176000C16841F40051C160002084F83A000120B2
:1017700084F83900002010BD704700002DE9F047C3
:10178000044690F8390099460D46012801D02228D8
:1017900058D12DB322B394F83800012852D0012635
:1017A00084F83860002784F83A7094F839002228C9
:1017B00019D0122084F83900A284E2844FF48058B2
:1017C000E08C4B46401EE084A0684FF0000240458C
:1017D0004FF08001204613D100F00EFB08BB04E05F
:1017E0000120BDE8F0873220E4E728882168C0F3B3
:1017F00008004860206908B16D1C08E0AD1C06E0D7
:1018000000F0FAFA68B9216815F8010B4860E08C1D
:101810000028D5D14B4600224021204600F0ECFAAA
:1018200008B10320DDE794F83900322806D084F8A7
:10183000396000BF84F838700020D2E7222084F895
:101840003900F7E70220CCE7FEE7FEE710B50421F8
:101850000448FFF717FF03480021BDE810403C3063
:10186000FFF710BF7801002010B500210448FFF7F2
:1018700009FF03480421BDE810403C30FFF702BFD8
:101880007801002010B504210448FFF7FBFE03484F
:101890000421BDE810403C30FFF7F4BE7801002081
:1018A00010B500210448FFF7EDFE03480021BDE814
:1018B00010403C30FFF7E6BE78010020084800F1F8
:1018C0001C02416864394160506864385060054AC0
:1018D0001160121D116004490860091D08607047FD
:1018E000F00100203404014034080040084800F1B1
:1018F0001C02416864314160506864305060054AA0
:101900001160121D116004490860091D08607047CC
:10191000F0010020340401403408004010B50021DB
:101920000948FFF7CBFE04210748FFF7C7FE06482A
:1019300000213C30FFF7C2FE03480421BDE81040FF
:101940003C30FFF7BBBE000078010020704709075C
:10195000090E002806DA00F00F0000F1E02080F800
:10196000141D704700F1E02080F800147047FFF765
:101970006FB90000174810B5016892B041F080516E
:1019800001601548016841F4404101600120009068
:10199000019002248005CDE90640192008904FF4FB
:1019A000B470CDE9090407200B906846FFF744FBAB
:1019B000FFF7B0F90F20CDE90C0400200E904FF492
:1019C000A0500F90E002109005210CA8FFF7D2F96B
:1019D00012B010BD4038024000700040104801684D
:1019E00041F4700101600F48016841F0010101609C
:1019F0000C4A00210832116002680B4B1A40026049
:101A0000031D0A4A1A60026822F480220260054817
:101A10000C300160024958068039086070470000A8
:101A200088ED00E000380240FFFFF6FE1030002491
:101A30000148FFF7A6BC000028020020F0B50268AC
:101A4000234B244D244E254F254C4FF0804C98427B
:101A500009D0604507D0A84205D0B04203D0B842B3
:101A600001D0A04204D122F0700E4A6842EA0E0270
:101A700098421BD0604519D0A84217D0B04215D06B
:101A8000B84213D0A04211D0164DA8420ED0164D28
:101A9000A8420BD0154DA84208D0154DA84205D03C
:101AA000144DA84202D0144DA84203D122F440752F
:101AB000CA682A4302608A68C2620A6882629842DF
:101AC00001D0A04201D10969016301214161F0BD4A
:101AD000000001400004004000080040000C0040ED
:101AE0000004014000400140004401400048014022
:101AF00000180040001C00400020004010B50123E9
:101B0000046A8B409C430462036A8A401343036265
:101B100010BD000030B5026A22F001020262026AC2
:101B2000436884690D6824F07304254322F002049D
:101B30008A6822430B4CA04202D00B4CA0420BD12E
:101B400022F00804CA6823F4407322434C6922F04F
:101B500004021C438B6923434360856149684163E8
:101B6000026230BD000001400004014030B5026A4D
:101B700022F010020262026A436884690D6824F44C
:101B8000E64444EA05248D6822F0200242EA051268
:101B90000D4DA84202D00D4DA8420ED1CD6822F0C5
:101BA000800242EA05124D6923F4406343EA85034B
:101BB0008D6922F0400243EA8503436084614968ED
:101BC0008163026230BD000000000140000401405A
:101BD00030B5026A22F480720262036A4268C46904
:101BE00023F4007324F073050C682C438D6843EADA
:101BF00005230D4DA84202D00C4DA8420ED1CD6850
:101C000023F4006343EA05234D6922F4405242EA7B
:101C100005128D6923F4806342EA05124260C461B3
:101C20004968C163036230BD000001400004014007
:101C300030B5026A22F480520262046A4268C369C3
:101C40000D6823F4E64343EA05238D6824F4005429
:101C500044EA0534084DA84202D0084DA84204D1F8
:101C60004D6922F4804242EA85124260C3614968AC
:101C70000164046230BD0000000001400004014026
:101C80002DE9F04101680446086920F44052E068FB
:101C9000104308612268D06849F20C6188432369C7
:101CA000A168E569194363692B4319430143D16076
:101CB0002168486920F44072A06910434861E269D4
:101CC00064263225B2F5004F49494A4822681DD0A2
:101CD000824201D08A426AD1FFF756F900EBC00177
:101CE00001EB00106168B0468900B0FBF1F1B1FB77
:101CF000F8F6FFF749F900EBC00101EB001061684D
:101D00008900B0FBF1F7FFF73FF969E0824201D0AB
:101D10008A4219D1FFF738F900EBC00101EB00103E
:101D20006168B0464900B0FBF1F1B1FBF8F6FFF78E
:101D30002BF900EBC00101EB001061684900B0FB1A
:101D4000F1F7FFF721F918E0FFF708F900EBC00100
:101D500001EB00106168B0464900B0FBF1F1B1FB46
:101D6000F8F6FFF7FBF800EBC00101EB001061682B
:101D70004900B0FBF1F7FFF7F1F800EBC00101EB10
:101D8000001061685FEA4101B0FBF1F1B1FBF8F0CE
:101D90006FF01801484307EB800005EB0011B1FB21
:101DA000F8F0216866F31F108860BDE8F081FFF746
:101DB000D5F800EBC00101EB00106168B046890066
:101DC000B0FBF1F1B1FBF8F6FFF7C8F800EBC0018A
:101DD00001EB001061688900B0FBF1F7FFF7BEF876
:101DE00000EBC00101EB001061688900CCE7000046
:101DF00000140140001001402DE9F0471D469046B7
:101E00000E460446FEF71EFF47195FEA08004FF032
:101E100000094FF0010806D02CE0681C03D0FEF743
:101E200011FFB8420BD22068006836EA0000F4D1F6
:101E300025E0681C1ED0FEF705FFB8421AD32068C3
:101E4000C16821F08001C1602068C16821F02001D3
:101E5000C1602068C16821F48071C1602068416957
:101E600021F00101416184F8398084F83890032021
:101E7000BDE8F0872068006836EA0000D9D000206D
:101E8000F6E7FEE70FB4054B10B503A9044A029824
:101E900000F0CAF810BC5DF814FB000059270008D8
:101EA0008800002002E008C8121F08C1002AFAD1E9
:101EB00070477047002001E001C1121F002AFBD1CA
:101EC000704700002DE9FF5FDDE90220010DDDF81C
:101ED00038B0024318D044F61050A1F2FF3141430C
:101EE0000D140F98012820D0A5EB0B00401C5FEAD1
:101EF000000A4FF00004474EDFF81C91A046504600
:101F000016D5CAF1000728E00F98012443A2012842
:101F100008D0002100980F9BC0E90021C0E90243CE
:101F2000BDE8FF9F6FEA0B01F4E7CBF10000DEE7AD
:101F3000074612E0F80707D0224633464046494696
:101F4000FEF796FA804689462246334610461946E1
:101F5000FEF78EFA04460E467F10002FEAD1DDE927
:101F60000201BAF1000F42464B4602DAFEF780FA50
:101F700001E0FEF7EFFA04460E460022284BFEF77A
:101F800071FB03D84FF0FF30014607E00022254BDC
:101F900020463146FEF7C5F9FEF74BFB102409E059
:101FA000002C0ADB0A220023FEF78AF9019B30325B
:101FB0001A55641E50EA0102F2D1641C019AC4F160
:101FC000110314440F9A012A03D0012208430DD1B2
:101FD0000AE0084304D000204FF0110B0F9080E777
:101FE000A3EB0B056D1E0DE05B4504DD4FF0000219
:101FF00005F1010504E003DA4FF00002A5F1010547
:10200000002AECD000980F99C0E90231C0E90045E0
:1020100086E70000000024400000F03F3000000090
:102020000000F0430000E03F2DE9FF4F95B09B46D4
:102030008946064600250FE2252877D10024274649
:10204000F84A0121059400E0044316F8013F203BC3
:1020500001FA03F01042F7D130782A2811D06FF03E
:102060002F033078A0F13002092A16D8059A44F0DF
:10207000020402EB820203EB42021044761C05903C
:10208000EFE759F8042B0592002A03DA504244F492
:102090000054059044F00204761C30782E2816D1A6
:1020A00016F8010F44F004042A280DD06FF02F0217
:1020B0003078A0F13003092B09D807EB870302EB36
:1020C0004303C718761CF3E759F8047B761C307875
:1020D0006C280FD006DC4C2817D068280DD06A2851
:1020E00014D104E0742810D07A280FD10DE044F404
:1020F00000140AE044F4801401E044F440147278BF
:10210000824202D104F58014761C761C3078662851
:102110000BD013DC582877D009DC002875D045286F
:10212000F6D04628F4D047281AD19DE118E063285C
:1021300035D0642879D0652812D195E1702873D004
:1021400008DC6728F1D069286FD06E280DD06F2881
:1021500006D1B5E073282CD0752875D0782874D0B6
:102160005A46179990476D1C75E1C4F30250022836
:1021700009D003280DD0D9F8001004280DD00D6027
:1021800009F1040967E1D9F80010EA17C1E9005222
:10219000F6E7D9F800100D80F2E70D70F0E719F8B6
:1021A000041B8DF8001000208DF80100EA46012084
:1021B00003E059F804AB4FF0FF3061074FF0000126
:1021C00002D40DE008F101018846B9420FDA8045DA
:1021D000F8DB1AF808100029F4D108E008F1010131
:1021E00088468142FADB1AF808100029F6D10598D2
:1021F0005B46A0EB080721463846179A00F094FA90
:10220000284400EB080507E04DE029E10DE01AF84D
:10221000010B5A4617999047B8F10108F7D25B466F
:1022200021463846179A13E142E00A220092C4F38D
:1022300002524FF0000A022A08D059F804CB032AB0
:102240004FEAEC710AD00DE029E02AE009F107011C
:1022500021F00702F2E802C1914609E00FFA8CFC76
:102260004FEAEC71042A03D14FFA8CFC4FEAEC716F
:10227000002907DA0A460021DCF1000C61EB0201BB
:102280002D2202E0220504D52B228DF80420012204
:1022900003E0E20701D02022F7E7904659E00A2147
:1022A00002E010220DE010214FF0000A00910BE037
:1022B00010224FF0000A44F004040827009203E0C3
:1022C00008224FF0000A0092C4F30252022A05D0FD
:1022D00059F804CB0021032A08D009E009F10701CD
:1022E00021F00702F2E802C1914605E01FFA8CFCDA
:1022F000042A01D10CF0FF0C4FF00008220728D56A
:10230000702806D0009B83F0100353EA0A0305D01F
:102310000EE040228DF80420012208E05CEA010270
:1023200006D030228DF804208DF805000222904658
:10233000009B83F0080353EA0A030AD15CEA010216
:1023400001D1620705D530228DF804204FF0010835
:102350007F1E582804D034A003900EA802900DE0F0
:1023600036A0F9E753466046009AFDF7A9FF844678
:102370000398825C0298401E029002705CEA0100A1
:10238000F0D1029806A9081A00F1200A600702D5C8
:1023900024F4803400E00127574502DDA7EB0A0052
:1023A00000E0002000EB0A01009005984144401A2B
:1023B0000590E00306D45B462146179A059800F085
:1023C000B3F90544002706E001A85A46C05D1799F5
:1023D00090476D1C7F1C4745F6DBE0030CD55B4640
:1023E0002146179A059800F09FF9054404E0302033
:1023F0005A46179990476D1C0099481E0090002975
:10240000F5DC08E0029802995A460078491C0291CE
:10241000179990476D1CBAF10001AAF1010AF1DC8D
:1024200065E1000009280100303132333435363798
:102430003839616263646566000000003031323310
:1024400034353637383941424344454600000000B0
:1024500000F058F90544761C307800287FF4ECAD84
:1024600019B02846BDE8F08F620700D4062709F1AD
:10247000070222F0070CFCE80223E14603F00048C3
:102480005FEA080C02D00FF2702C0DE05FEA045CEA
:1024900002D50FF2682C07E05FEAC47C02D00FF28D
:1024A000602C01E0AFF2700C4FF0FF3823F00043D6
:1024B000CDF850C065280CD006DC452809D0462848
:1024C0001DD047283DD13DE0662818D067287ED131
:1024D00038E00021112F01DB112000E0781CCDE94C
:1024E000000106A90EA8FFF7EDFCDDE90F010E9A29
:1024F00003910021009207F1010A04914DE04FF091
:1025000000400097CDE9011006A90EA8FFF7DAFCFC
:10251000DDE90F0203920E9B11990022DDF80CA059
:102520000093049211B9791C00EB010AB7EB0A0081
:1025300004D4C0F1FF3007F1010A0490AAEB0700B0
:10254000019044E0012F00DA01270021112F01DD65
:10255000112000E03846CDE9000106A90EA8FFF7DA
:10256000B1FCDDE90F010E9A039100210491009264
:10257000BA4621070CD40399514500DA8A46BAF1CC
:10258000010F05DD009AAAF10101515C302908D044
:10259000B84202DA10F1040F06DA0121CDE9011088
:1025A00015E0AAF10101E9E7002805DC04990144DE
:1025B0000491AAEB000102E0411C514500DD8A466E
:1025C0000499401A401C01904FF0004002902007EF
:1025D00004D40198504501DBCDF8048000208DF82B
:1025E0004F0002980DF14F07B0F1004F25D02B207E
:1025F0000E9002984FF0020800280CDA4042029038
:102600002D200E9007E00A210298FDF743FE30319D
:10261000029007F8011DB8F10001A8F10108F2DCF1
:1026200002980028EFD1791E0E980870307800F0DB
:10263000200040F0450007F8020D12A8C01B00F171
:1026400007081498007800B1012000EB0A010198F6
:1026500001EBE07105984144401A401E0590E003EB
:1026600006D45B462146179A059800F05DF80544AC
:102670001498007818B15A46179990476D1CE003DA
:1026800024D55B462146179A059800F04DF805447D
:102690001CE00498002807DBDDE90301884203DD24
:1026A0000098405C179901E0179930205A469047EE
:1026B000049805F10105401C04900198401E01900A
:1026C00004D12E205A46179990476D1CBAF100018B
:1026D000AAF1010ADDDC05E017F8010B5A4617994B
:1026E00090476D1CB8F10001A8F10108F4DC5B46CD
:1026F0002146179A0598ABE62D0000002B0000003C
:10270000200000002DE9F041044600251E46174632
:10271000880404D405E039462020B0476D1C641EAF
:10272000F9D52846BDE8F0812DE9F04104460025A1
:102730001E469046C80301D5302700E020278804B4
:1027400004D505E041463846B0476D1C641EF9D5F6
:102750002846BDE8F081000013B54FF6FF73012253
:1027600069460248FFF70AF800981CBD8C0000205B
:1027700086B000252E46FEF773FAFFF7FBF8FEF74A
:1027800029F85D485D49DFF878810068B0FBF1F118
:102790005C48C8F80810016841F00201016004209B
:1027A000009001200024CDE901040320564F03903E
:1027B00069463846FEF72AF9012204213846FEF719
:1027C0003CFADFF848A144F6206B4FF06009CAF8E4
:1027D0000840CAE9009BAAF178004D49CAF81040A8
:1027E0000160D8F80810C0E903B4C0E901145F46DD
:1027F000FEF7EDFE51460022A1F17800FEF77FFEC4
:1028000051460422A1F17800FEF779FE0AF11C007E
:10281000404984600461C0E9009758380160D8F8E5
:102820000810C0E90374C0E90114FEF7D0FE0AF1F4
:102830001C010022A1F15800FEF761FE0AF11C0103
:102840000422A1F15800FEF75AFEFEF763F8324861
:10285000FFF718FB3148FFF715FB31A0FFF712FB1C
:1028600044460020FEF732F8618807468D4202D1C7
:10287000A08886420BD033A0FFF704FBA18837A0C5
:10288000FFF700FB6588A6883220FEF779F8642FF1
:102890001BD00ADC312F20D0322F25D0612FE0D180
:1028A000FFF73CF8FEF7EEFFDBE7732F12D0772F30
:1028B00006D0782FD5D1FFF731F8FEF7C7FFD0E764
:1028C000FFF72CF8FEF7D0FFCBE7FFF727F8FEF76E
:1028D000E7FFC6E7FFF722F8C3E7DAF80410594527
:1028E000BFD2FFF703F8BCE7DAF804000028B8D03D
:1028F000FEF7E4FFB5E700002C00002080841E00F6
:10290000440000203038024000040240F001002062
:102910000004014000080040442A0008FC29000887
:102920000D0A273127203D205370656564205570BE
:102930002C20273227203D20537065656420446F8A
:10294000776E00000D0A456E636F64657220312852
:102950004C65667429202D3E202564000D0A456EC5
:10296000636F646572203228526967687429202D6C
:102970003E20256400000000144810B5816911B1A3
:102980000121016210BD00210162114903E0D2B1B1
:102990000269521E0261026902EB820251F8222092
:1029A000002A0269F3D002EB820201EB820101F1FD
:1029B00008034A6852684A609A4201D152684A60E4
:1029C000D168016010BDFDF745FCFEE75000002016
:1029D0006402002000040040000800020700080014
:1029E00007000800000100020004000800000000C9
:1029F0000102030401020304060708090D0A2777F0
:102A000027203D20466F72776172642C2027732740
:102A1000203D2053746F702C20277827203D2042C2
:102A200061636B776172642C20276127203D204C05
:102A30006566742C20276427203D205269676874DE
:102A4000200000000D0A202D2D2D2D2D2D2D2D2D9A
:102A50002D2D2D2D2D2D2D2D2D2D20456E636F64AB
:102A60006572204D6F746F72204578616D706C6572
:102A7000202D2D2D2D2D2D2D2D2D2D2D2D2D2D2D93
:102A80002D2D2D2D00000000A82A00080000002098
:102A90008C000000A41E0008342B00088C000020CD
:102AA0002C070000B41E0008000000000048004091
:102AB00000140140000402400018024000040240DB
:102AC0000018024000200240002002400020024086
:102AD000002002400024F40000000000000000007C
:102AE00001020304060708090000000003030000B8
:102AF00000000000000000000000000000000000D6
:102B000000000000000000000000000000000000C5
:102B100000000000000000000000000000000000B5
:102B200000000000FFFFFFFF0000000000000000A9
:042B300000000000A1
:04000005080001AD41
:00000001FF
